:100000000C9464000C9483000C9483000C94830083
:100010000C9483000C9483000C9483000C94830054
:100020000C9483000C94E7030C9483000C948300DD
:100030000C9483000C9483000C9483000C943D0377
:100040000C9483000C9483000C9483000C94830024
:100050000C9483000C9483000C9483000C94830014
:100060000C9483000C9483000C9483000C94830004
:100070000C9483000C9483000C9419010C94E900F7
:100080000C9483000C9483000C948300494E4649E1
:100090004E4954594E414ECDCCCC3D0AD7233C1746
:1000A000B7D13877CC2B329595E6241FB14F0A0093
:1000B0000020410000C84200401C4620BCBE4CCA83
:1000C0001B0E5AAEC59D740011241FBECFEFD0E1A8
:1000D000DEBFCDBF12E0A0E0B1E0E0E1F7E200E07A
:1000E0000BBF02C007900D92A835B107D9F715E0F4
:1000F000A8E5B2E001C01D92A630B107E1F70E9469
:1001000085000C9486130C94000089E028E130E00F
:100110000FB6F894A89521BD0FBE81BD0E94BB010A
:100120000E94CA030E94040578940E948F07A89534
:1001300080EE96E00E9463038AE090E00E949103C3
:100140000E9484038AE191E0909301058093000569
:1001500080E091E00E944810A8950E94850B809154
:100160004A03882311F010924A038091490388239F
:1001700099F3109249030E9479070E946D070E942B
:1001800079040E9471070E94C304E6CF0E94DB023B
:100190009C018C34910521F08D34910539F403C014
:1001A0000E949B0408950E94B804089597FD10C012
:1001B00000D000D086E091E0EDB7FEB79283818356
:1001C000348323830E9436100F900F900F900F906E
:1001D00008951F920F920FB60F920BB60F92112433
:1001E0008F939F93EF93FF9390915B0280915A02BC
:1001F000981731F480919A008F7D80939A000EC0F9
:1002000080915B02E82FF0E0EF71F070E45AFD4F4F
:10021000908190939C008F5F80935B02FF91EF91A0
:100220009F918F910F900BBE0F900FBE0F901F905C
:1002300018951F920F920FB60F920BB60F921124C2
:100240002F938F939F93EF93FF9320919C00809126
:10025000580290915902891B87FD0CC08091580269
:10026000E82FF0E0EF77F070E458FD4F20838F5FC8
:1002700080935802FF91EF919F918F912F910F9052
:100280000BBE0F900FBE0F901F9018959B01AC01F5
:100290006050774F824C9F4FF2E0660F771F881FA8
:1002A000991FFA95D1F7E3E0220F331F441F551F22
:1002B000EA95D1F70E94FC0C21503040832F9927FA
:1002C00087FD9A95809398002093990008951F9335
:1002D000182F8A3029F48DE00E94670101C0A8958B
:1002E00080915A0290915B02891B8032C1F3809108
:1002F0005A02E82FF0E0EF71F070E45AFD4F1083DE
:100300008F5F80935A0280919A00806280939A0056
:1003100080E090E01F9108959091580280915902D9
:10032000981719F42FEF3FEF0EC080915902E82F74
:10033000F0E0EF77F070E458FD4F9081292F30E026
:100340008F5F80935902C90108959091580280915E
:100350005902981771F090915902E92FF0E0EF7768
:10036000F070E458FD4F80819F5F9093590290E0B8
:100370000895A895EACF82E080939B0088EB809354
:100380009A0060E072EC81E090E00E9446010895DE
:1003900083B1806F83B982B18F7082B9E2E6F0E0F9
:1003A0008081806480838081806880838081806890
:1003B000808321B1207F80818F77808380818068D6
:1003C000808380818068808381B190819F779083D2
:1003D00090819F7B908392B1906F92B982958F703C
:1003E000822B0895E2E6F0E080818F7E808308957D
:1003F000E2E6F0E08081806180830895CF93DF930F
:10040000C0E0D0E00E94C80187FD03C020E030E0DA
:1004100007C0219687E2C031D807A1F72FEF3FEF41
:10042000C901DF91CF91089593B1807F9F70892B8F
:1004300083B9E2E6F0E080818068808380818F77F5
:10044000808308951F93182F0E941402812F829594
:10045000807F0E9414020E94FE011F910895803146
:1004600008F080E08093FC02883008F0805E8058BD
:100470000E94220208951F93182F8091FC02803160
:10048000E8F480916200806280936200812F0E9474
:100490001402812F8295807F0E9414028091620055
:1004A0008F7D809362000E94FE018091FC028F5F2D
:1004B0008093FC02883011F40E942F0281E090E0CA
:1004C0001F9108958A3010F4805D01C0895A60E060
:1004D00070E00E943B0208951F93182F82958F7041
:1004E0000E946202812F8F700E9462021F91089504
:1004F0000F931F9302E610E0F80180818F718083D3
:10050000E1E6F0E08081806F808382B1806F82B904
:100510008FE090E00E94910380E30E94140285E046
:1005200090E00E94910380E30E94140284E690E030
:100530000E94860380E30E94140284E690E00E94F9
:10054000860380E20E94140284E690E00E94860303
:1005500088E20E9422028CE00E94220281E00E9436
:1005600022021092FC02F80180818F7E80831F910D
:100570000F91089520E030E097FF02C0969A01C0E5
:100580009698979A97982F5F3F4F2031310519F031
:10059000880F991FF1CF0895909338038093370304
:1005A000959A809590950E94BA029598089580B387
:1005B0008095817008950F931F93CF93DF93959A41
:1005C0008EEF9FEF0E94BA02969AE9E3F3E08091E2
:1005D000630080958F718193979A979883E0E934AF
:1005E000F807A9F78091370390913803809590958B
:1005F0000E94BA029598C7E2D3E040E050E0AFEF26
:10060000BFEF01E010E0BA01FA01E75CFC4FE081C6
:1006100088818E27A9F020E030E0F82FFE23C80162
:10062000022E02C0880F991F0A94E2F78F2309F067
:10063000DB012F5F3F4F605F7F4F2530310579F73A
:10064000E9934F5F5F4F40315105E9F6CD01DF91EE
:10065000CF911F910F9108959798959A81B3806ECD
:1006600081BB909AE4E6F0E08081807E8083E5E6BD
:10067000F0E080818F61808308951F920F920FB602
:100680000F9211248F93809136018150809336010F
:10069000882331F48AE08093360181E080934A0315
:1006A00080913701815080933701882331F48AEF9C
:1006B0008093370181E0809349038F910F900FBEA3
:1006C0000F901F9018950F931F938C01139A62E05F
:1006D00070E00E94E90C882777FD8095982F605084
:1006E0007E4E85489F4F222717FD2095322FA90166
:1006F00098010E941E0D21503040309387002093B6
:1007000086001F910F9108951398089522B760E114
:1007100070E00E94E90C260F82B7821B87FDFCCF98
:100720000895CF93DF93EC0105C088EE93E00E941B
:10073000860321972097C9F7DF91CF9108958E31D5
:1007400091051CF42EE130E007C09C0183E0293EB6
:10075000380714F028EE33E085B5887F85BD81E049
:100760002130380714F444E005C0359527953595B8
:10077000279545E0822F815083BD85B5482B45BD27
:10078000089524E08030920714F08FEF93E099BD34
:1007900088BD08958EE083BF89EF81BF82E087BF67
:1007A000BE9A83E28FBD89E08EBD8FEF93E099BD45
:1007B00088BD8CE085BD83E683BD87B7806887BF31
:1007C00083E480938B0089E180938A0008951F92CF
:1007D0000F920FB60F920BB60F9211242F933F93E7
:1007E0004F935F936F937F938F939F93AF93BF9339
:1007F000EF93FF930E94D605FF91EF91BF91AF91C8
:100800009F918F917F916F915F914F913F912F9128
:100810000F900BBE0F900FBE0F901F901895209158
:100820000F0380911003281B332727FD3095C90142
:1008300008951BBA15BA08959C0101C0A89580912E
:100840000F0390911003891B8830C0F780910F032C
:1008500090E087709070FC01EE0FFF1FEE0FFF1FFE
:10086000E80FF91FE55BFC4F1082C90186509F4FCE
:100870008B5B934178F477FD0DC089E06136780792
:100880004CF4328321837483638380910F038F5FE1
:1008900080930F0308959C0101C0A89580910F03D8
:1008A00090911003891B8830C0F780910F0390E06E
:1008B00087709070FC01EE0FFF1FEE0FFF1FE80F17
:1008C000F91FE55BFC4F81E0808382E1213C380722
:1008D00078F477FD0DC089E0613678074CF43283F7
:1008E00021837483638380910F038F5F80930F0351
:1008F00008959C0101C0A89580910F039091100369
:10090000891B8830C0F780910F0390E0877090704A
:10091000FC01EE0FFF1FEE0FFF1FE80FF91FE55B55
:10092000FC4F82E080833283218380910F038F5FAD
:1009300080930F030895809142019091430197FFA6
:100940000CC08AEF90E00E9479046091440170919C
:10095000450180E090E00E941C0484E690E00E9443
:10096000790480E090E060E070E00E941C0408954B
:1009700084E690E00E94790486E09FEF60E070E0FA
:100980000E941C0408959C0101C0A89580910F034A
:1009900090911003891B8830C0F780910F0390E07D
:1009A00087709070FC01EE0FFF1FEE0FFF1FE80F26
:1009B000F91FE55BFC4F83E08083328321838091C4
:1009C0000F038F5F80930F030895FC01DB0180917B
:1009D00042019091430191838083809144019091E1
:1009E00045018D939C9308951A9B06C082E390E085
:1009F00090930D0380930C031A988FEF9FEF9093C1
:100A0000FE028093FD0208951BBA15BA0E94F404F9
:100A10008FEF8ABB84BB129A919A0895CF93DF938C
:100A200090910F03809110039817A1F0209110036B
:100A3000822F90E087709070EC01CC0FDD1FCC0FFF
:100A4000DD1FC80FD91FC55BDC4F2F5F209310033C
:100A5000209719F40E94F404A5C04881423009F49B
:100A60009DC0423020F0433009F09CC08EC02091E0
:100A700042013091430189819A812817390751F445
:100A800020914401309145018B819C8128173907C1
:100A900009F488C0442319F40E94F40413C01A997D
:100AA00011C08FEF93E00E94C1031A9A1092FE02C8
:100AB0001092FD0280913C0190913D0190930D03B5
:100AC00080930C0349815A816B817C812091420182
:100AD00030914301241735074CF481E090E0909366
:100AE000080380930703421B530B0AC08FEF9FEF4D
:100AF0009093080380930703C901841B950BAC01F5
:100B00002091440130914501261737075CF481E0BC
:100B100090E090930A0380930903CB01821B930B0F
:100B20009C0108C08FEF9FEF90930A038093090305
:100B3000261B370B241735075CF410920B035093D8
:100B400002034093010330930403209303030BC07B
:100B500081E080930B0330930203209301035093B1
:100B6000040340930303109200031092FF0280914C
:100B700001039091020362E070E00E94E90C70931F
:100B800006036093050383E00EC089819A819093E8
:100B90004101809340010E94C10304C089819A8170
:100BA0000E949F0382E0DF91CF9108958091FD0222
:100BB0009091FE0297FD24C09C012F5F3F4F309320
:100BC000FE022093FD0280913A0190913B0128178B
:100BD000390774F01A9A80914001909141010E9466
:100BE000C1038FEF9FEF9093FE028093FD0208C038
:100BF0008091380190913901281739070CF01A9823
:100C000080910C0390910D03009741F00197909310
:100C10000D0380930C03892B09F0B5C00E94D70205
:100C2000882379F082E080930E03109243011092A2
:100C3000420180910F03809310030E94F4041BBAB9
:100C400015BA80910E038130A9F0813030F08230E6
:100C500011F1833009F07CC025C0819B09C08091CF
:100C60004401909145011816190614F4019709C022
:100C700081E024C081990AC080914401909145018E
:100C80000196909345018093440162C01092450102
:100C90001092440112C00E940E0580930E03823010
:100CA00081F656C08091FF029091000340910103AC
:100CB000509102038417950724F082E080930E037D
:100CC00047C00196909300038093FF022091050393
:100CD000309106038091030390910403281B390B84
:100CE000309306032093050337FF15C0240F351FEB
:100CF00030930603209305038091420190914301B4
:100D00002091070330910803820F931F90934301B2
:100D10008093420104C080910B03882359F0809195
:100D20004401909145012091090330910A03820FFB
:100D3000931FA7CF80914201909143012091070317
:100D400030910803820F931F9093430180934201D7
:100D500080910E03823019F41BBA15BA0895E09100
:100D60004201F0914301EF70F070EA5BFE4F808129
:100D70008BBBE0914401F0914501EF70F070EA5BAC
:100D8000FE4F808185BB089590E087FF02C0C79A1F
:100D900001C0C798C19AC1989F5F983011F0880F21
:100DA000F4CF089587B3826987BBC49887ED0E940A
:100DB000C40680E0C19A96B3C1988F5F8830D1F79E
:100DC000C49A0895EF92FF920F931F93CF93DF93EE
:100DD000C49888EE0E94C40680E00E94C40680E0A9
:100DE0000E94C40680E00E94C40680E202C0C19A4C
:100DF000C1988150E0F7E12C80E4F82E88E0082FBC
:100E0000112DC6E5D1E031C020E090E0C19A220F5B
:100E100086B38170280FC1989F5F9830B9F78E2DE7
:100E2000819590E08F709070892B19F080E290E0AE
:100E300002C08AE090E000D000D000D0EDB7FEB74D
:100E40003196ADB7BEB71296DC93CE93119722833D
:100E50001382958384830E9436108DB79EB70696C1
:100E60000FB6F8949EBF0FBE8DBF0894E108F1083D
:100E7000010911099FEFE9169FEFF9069FEF090796
:100E80009FEF190729F00E948C01039709F0BCCF4E
:100E9000C49ADF91CF911F910F91FF90EF90089529
:100EA000A82FB0E0FD01E35AFE4F208130E0215031
:100EB0003040AE5EBC4F8C9190E0AC01249FC001ED
:100EC000259F900D349F900D112483589F4F6AEFFA
:100ED00070E00E94E90CCB01089581E00E94500768
:100EE000089582E00E945007089580E00E94500714
:100EF0000895349A8091110395B1E82FF0E0EE5EE9
:100F0000FC4F90838F5F80931103833011F4109214
:100F1000110380911103806687B9369A08958091F4
:100F20001103806687B987EC86B9089580E691E061
:100F30000E944810089500D000D000D083E691E0D0
:100F4000EDB7FEB7928381838091F5049091F6040A
:100F5000A091F704B091F8040196A11DB11D8383FF
:100F60009483A583B6830E9436108DB79EB70696EC
:100F70000FB6F8949EBF0FBE8DBF80E691E00E9431
:100F80004810089540912303509124032091250394
:100F900030912603620F731F480F591F57FF02C07D
:100FA00040E050E077FF02C060E070E081E991E04E
:100FB000489F9001499F300D589F300D1124689F24
:100FC000A001699F500D789F500D11248091570208
:100FD000882329F0C901BA010E941C040895C9019F
:100FE000BA010E944B0408954091150350911603D5
:100FF00020E630E0B901469F9001479F300D569F93
:10100000300D1124682F772767FD7095C9018D5821
:101010009C4F0E940A109C019093F4048093F30467
:1010200080E0232B09F081E0089583E793E040916D
:1010300015035091160320E630E0BA01629FA0012B
:10104000639F500D729F500D1124BC01640F751FDA
:101050002091F3043091F404261B370B4F5F5F4F50
:10106000240F351F820F931F60E070E04AE050E0CC
:101070000E94BB0E089583E793E0409115035091C1
:10108000160320E630E0BA01629FA001639F500D75
:10109000729F500D1124BC01640F751F2091F30441
:1010A0003091F404261B370B4F5F5F4F240F351F21
:1010B000820F931F60E070E00E944D0D0895EF9243
:1010C000FF920F931F9387E40E94F407882309F48B
:1010D000F7C00E943B080E94DC0B6C31710509F4DB
:1010E000BEC06D31710554F477FD1CC162307105CD
:1010F00094F06430710509F015C174C06B35710549
:1011000009F4BFC06C35710509F4BFC06A357105BB
:1011100009F008C1B3C08AE50E94F407882371F082
:101120000E943B08109257020E94E10B6115710565
:101130008105910519F081E0809357028091560254
:1011400060911F03209120033091210370912203AD
:10115000882339F1862F922F7C01832F972F8C01C2
:1011600088E50E94F407882329F00E943B080E942A
:10117000DC0B7B0189E50E94F407882329F00E949B
:101180003B080E94DC0B8B0180911F039091200390
:101190006091210370912203600F711F8E0D9F1DBE
:1011A0001EC0E62E022FF32E172F88E50E94F407AB
:1011B000882331F00E943B080E94DC0BE62E072FAB
:1011C00089E50E94F407882331F00E943B080E94C1
:1011D000DC0BF62E172F8E2D902F6F2D712F0E9466
:1011E000C207A0C080E50E94F407882321F4EE2402
:1011F000FF24870106C00E943B080E94E10B7B018F
:101200008C0183E50E94F407882361F00E943B086B
:1012100020E030E04AE754E40E943A0C0E94E10BDF
:101220007B018C01C801B7012AE030E040E050E0CA
:101230000E94FC0CC901DA017C018D010AC0A8954D
:101240008AE090E00E9491030894E108F108010906
:101250001109E114F1040105110589F763C080E06B
:1012600090E060E070E00E941C0410922403109251
:101270002303109226031092250354C010925602A5
:1012800051C081E0809356024DC088E50E94F4076A
:10129000882341F00E943B080E94DC0B70932403DA
:1012A0006093230389E50E94F4078823D9F10E9403
:1012B0003B080E94DC0B709326036093250332C029
:1012C0008DE40E94F407882349F10E943B080E94A4
:1012D000DC0B6B36710551F081E06C32780749F018
:1012E0006A367105F9F40E949B041CC00E94B80480
:1012F00019C083E50E94F4078823A1F00E943B08EF
:101300001092570220E030E040E050E00E94360C9E
:10131000181644F481E08093570204C08FE691E0F0
:101320000E9448101F910F91FF90EF900895BF9277
:10133000CF92DF92EF92FF920F931F93CF93DF93A1
:1013400080E6C82ED12CBB24B3940E948C019C0152
:1013500097FDD1C18091190390911A0304970CF065
:10136000CAC1422F2093F9042A3081F02D3071F048
:101370002A3321F480911D03882341F020911B031F
:1013800030911C032F3531050CF45DC1E0911B0336
:10139000F0911C03309719F410921D03ACC1809199
:1013A0001703909118038C9D80018D9D100D9C9DBD
:1013B000100D1124E00FF11FED58FC4F10828091A9
:1013C0001D03882309F03AC110921D03E801CD588E
:1013D000DC4FCE016EE470E00E940A109C01009781
:1013E00009F4BCC09093F4048093F3042C1B3D0BD0
:1013F000200F311FC9018C589C4F60E070E04AE01B
:1014000050E00E94BB0E6093FA047093FB0480933B
:10141000FC049093FD04E090F504F090F604009134
:10142000F7041091F804A80197012F5F3F4F4F4F29
:101430005F4F6217730784079507D1F080911703F8
:10144000909118039C012C9DC0012D9D900D3C9DF9
:10145000900D11248D589C4F66E871E00E941C107D
:10146000009731F400D000D000D08BE891E04FC05D
:1014700080911703909118038C9DE0018D9DD00DF4
:101480009C9DD00D1124CE018D589C4F6AE270E0D6
:101490000E940A109C010097A9F110E040E0CE01E3
:1014A00002C01E274F5FFC01E40FF11DED58FC4FF9
:1014B000E081EA32B1F73093F4042093F304C901D8
:1014C000019660E070E00E944D0D0E94DC0B212F20
:1014D00030E02617370789F100D000D000D088EC23
:1014E00091E0EDB7FEB7928381838091F5049091EE
:1014F000F604A091F704B091F80483839483A58344
:10150000B6830DC000D000D000D080EF91E0EDB7E1
:10151000FEB792838183E382F482058316830E945F
:1015200036102DB73EB72A5F3F4F0FB6F8943EBF37
:101530000FBE2DBF0E949B07BBC08091FA04909103
:10154000FB04A091FC04B091FD048093F5049093FA
:10155000F604A093F704B093F8042CC0CE016AE21D
:1015600070E00E940A10009729F100D000D000D04E
:1015700083E292E0EDB7FEB7928381838091F50418
:101580009091F604A091F704B091F80483839483BA
:10159000A583B6830E94361010921C0310921B0381
:1015A0002DB73EB72A5F3F4F0FB6F8943EBF0FBE30
:1015B0002DBFA1C080911703909118038C9D8001CD
:1015C0008D9D100D9C9D100D1124E801CD58DC4F10
:1015D000CE0167E470E00E940A109C010097C1F000
:1015E0009093F4048093F3042C1B3D0B200F311FC8
:1015F000C9018C589C4F60E070E00E944D0D0E9424
:10160000DC0B6430710520F480E691E00E94481004
:101610008091170390911803019664E070E00E9496
:10162000E90C90931803809317038091190390910C
:101630001A03019690931A038093190310921C03C6
:1016400010921B0382CE4B33D1F580911E03882369
:10165000B1F480911703909118038C9DF0018D9D3A
:10166000F00D9C9DF00D1124ED58FC4F80818035CC
:1016700031F581818535E1F0843409F519C02230D6
:101680003105D9F480911703909118038C9DF001D6
:101690008D9DF00D9C9DF00D1124ED58FC4F808127
:1016A000893459F481818E3441F481E080931E03A2
:1016B00010921C0310921B031EC0B0921D03809158
:1016C0001D03882309F041CE8091170390911803E0
:1016D0008C9DF0018D9DF00D9C9DF00D1124E20F6D
:1016E000F31FED58FC4F40832F5F3F4F30931C0397
:1016F00020931B032ACEDF91CF911F910F91FF9072
:10170000EF90DF90CF90BF90089580911903909152
:101710001A03039714F40E9497098091190390917A
:101720001A03892BC1F00E945F08809119039091E0
:101730001A03019790931A0380931903809115035C
:1017400090911603019664E070E00E94E90C90937A
:101750001603809315030895BC018091190390919D
:101760001A03049744F5209117033091180380E67B
:1017700090E0AC01249FC001259F900D349F900DF7
:1017800011248D589C4F0E94151080911703909141
:101790001803019664E070E00E94E90C909318032E
:1017A000809317038091190390911A0301969093E7
:1017B0001A0380931903089504D06894B11150C09E
:1017C000089533D088F09F5790F0B92F9927B751DB
:1017D000A0F0D1F0660F771F881F991F1AF0BA95F5
:1017E000C9F712C0B13081F03AD0B1E0089537C0E6
:1017F000672F782F8827B85F39F0B93FCCF38695EB
:1018000077956795B395D9F73EF490958095709547
:1018100061957F4F8F4F9F4F089557FD9058440F0C
:10182000551F59F05F3F71F04795880F97FB991F3F
:1018300061F09F3F79F087950895121613061406FC
:10184000551FF2CF4695F1DF08C016161706180689
:10185000991FF1CF86957105610508940895E89464
:10186000BB2766277727CB0197F9089566D008F440
:101870008FEF08950BD09CC08DD028F092D018F037
:10188000952309F07EC083C01124EACFC6DFA0F300
:10189000959FD1F3950F50E0551F629FF001729F05
:1018A000BB27F00DB11D639FAA27F00DB11DAA1F24
:1018B000649F6627B00DA11D661F829F2227B00D71
:1018C000A11D621F739FB00DA11D621F839FA00DFC
:1018D000611D221F749F3327A00D611D231F849F4C
:1018E000600D211D822F762F6A2F11249F575040A3
:1018F0008AF0E1F088234AF0EE0FFF1FBB1F661F3E
:10190000771F881F91505040A9F79E3F510570F0F6
:1019100038C0A6CF5F3FECF3983EDCF38695779511
:101920006795B795F795E7959F5FC1F7FE2B880FF1
:10193000911D9695879597F90895990F0008550F71
:10194000AA0BE0E8FEEF16161706E807F907C0F045
:1019500012161306E407F50798F0621B730B840B4D
:10196000950B39F40A2661F0232B242B252B21F427
:1019700008950A2609F4A140A6958FEF811D811DC7
:10198000089597F99F6780E870E060E008959FEF01
:1019900080EC089500240A94161617061806090606
:1019A000089500240A9412161306140605060895D5
:1019B000092E0394000C11F4882352F0BB0F40F45D
:1019C000BF2B11F460FF04C06F5F7F4F8F4F9F4F9D
:1019D000089597FB092E07260AD077FD04D049D039
:1019E00006D000201AF4709561957F4F0895F6F7A0
:1019F000909581959F4F0895A1E21A2EAA1BBB1BBB
:101A0000FD010DC0AA1FBB1FEE1FFF1FA217B307CA
:101A1000E407F50720F0A21BB30BE40BF50B661FE0
:101A2000771F881F991F1A9469F7609570958095A4
:101A300090959B01AC01BD01CF01089597FB092E44
:101A400005260ED057FD04D0D7DF0AD0001C38F48D
:101A500050954095309521953F4F4F4F5F4F0895DA
:101A6000F6F790958095709561957F4F8F4F9F4FBA
:101A70000895AA1BBB1B51E107C0AA1FBB1FA617D5
:101A8000B70710F0A61BB70B881F991F5A95A9F727
:101A900080959095BC01CD0108958F929F92AF9251
:101AA000BF92CF92DF92EF92FF920F931F93CF934B
:101AB000DF93EC015B016115710519F0FB01918366
:101AC0008083F9908F2D90E00E94EA0F892BC9F74F
:101AD000FDE2FF1621F4F990EE24E39405C02BE219
:101AE000F21609F4F990EE248E0101501040C8015D
:101AF0006CE870E043E050E00E94F20F892B01F5A2
:101B00008E010E5F1F4FC8016FE870E045E050E0A6
:101B10000E94F20F892B19F48E01095F1F4FA11447
:101B2000B10419F0F50111830083E0FC04C070E0FA
:101B300090E080E814C070E090E080E86FEF08C1AA
:101B4000C80164E970E043E050E00E94F20F892B85
:101B500069F4A114B10429F470E090E080EC6FE71F
:101B6000F7C02296F501D183C083F6CF882499244B
:101B700040E050E060E070E0EF2DE053EA30A0F587
:101B8000F2E0EF2A8E2D90E09C0128703070E2FE8A
:101B900006C0232B79F50894811C911C2BC0232BA4
:101BA00019F0089481089108DB01CA0112E0880F3E
:101BB000991FAA1FBB1F1A95D1F7480F591F6A1FFB
:101BC0007B1F440F551F661F771F4E0F511D611D50
:101BD000711D483929E9520729E9620729E172078D
:101BE00048F084E0E82A06C0EE3F31F4E3FC39C057
:101BF00098E0E92AF990C0CFE53311F0E53189F595
:101C000029912D3219F4E0E1EE2A05C02B3219F0AA
:101C100081E090E003C0299182E090E0E22FE05360
:101C2000EA3018F0C81BD90B1CC020E030E0FCE003
:101C300020383F075CF4C901880F991F880F991F4E
:101C4000280F391F220F331F2E0F311DE991E0534A
:101C5000EA3068F3E4FE03C0309521953F4F820ED1
:101C6000931ECE2CDD24E1FE07C0A114B10421F0A7
:101C70002197F501D183C083CB01BA010E94811065
:101C80007B018C01F3E0CF22DD2423E0C216D104D6
:101C900021F417FB109517F9109557016801C80139
:101CA000B70120E030E040E050E00E947D10882342
:101CB00009F44AC097FE0DC02BEAE22E20E0F22E76
:101CC0009094819491089394C0E2D0E000E010E0F9
:101CD00012C093ECE92E90E0F92EF6CFF701259192
:101CE000359145915491C601B5010E943A0C5B01B2
:101CF0006C018C1A9D0A8C169D0684F7D595C795A4
:101D00000F5F1F4F0630110529F08CEF9FEFE80E93
:101D1000F91EF1CFC501D6017C018D018C2D880FF4
:101D20008D2D881F8F3F51F0C601B50120E030E0B6
:101D300040E050E00E947D10882331F482E290E080
:101D400090930505809304057E2D9F2D802F612F94
:101D5000272F392F482F562FB901CA01DF91CF9174
:101D60001F910F91FF90EF90DF90CF90BF90AF90B9
:101D70009F908F9008952F923F925F926F927F92E3
:101D80008F929F92AF92BF92CF92DF92EF92FF928B
:101D90000F931F93CF93DF938C011B01EA01611511
:101DA000710519F0FB0191838083209749F0CE01E2
:101DB0000297839728F020E030E040E050E0F6C042
:101DC000F801A1908F018A2D90E00E94EA0F892BE3
:101DD000B9F7FDE2AF1631F4F801A1908F01552457
:101DE000539407C0FBE2AF1619F4F801A1908F01DC
:101DF0005524209719F0C031D105C1F4F0E3AF1696
:101E000079F4F8018081883711F0883549F4F801B8
:101E1000A1800E5F1F4FF2E05F2AC0E1D0E006C054
:101E2000209721F480E3A816E9F427C0C830D10533
:101E300031F1C930D10524F4C230D10531F50CC0DF
:101E4000CA30D10589F0C031D105F9F4C12CD12CAB
:101E5000E12CB8E0FB2E28C0C12CD12CE12CA0E451
:101E6000FA2E22C0CAE0D0E0FCECCF2EFCECDF2E34
:101E7000FCECEF2EFCE0FF2E17C0C8E0D0E0C12C38
:101E8000D12CE12CE0E1FE2E0FC09E01442737FD4E
:101E90004095542F60E070E080E090E80E94FC0CD8
:101EA000C901DA016C017D0120E030E040E050E042
:101EB00060E03E01882477FC8094982C70EDB72E6A
:101EC000BA0CE9E0EB1570F48A2D81548A3118F4CC
:101ED00099ECB92E06C08A2D81568A3150F589EACF
:101EE000B82EBA0C8B2D90E08C179D0714F56F3F20
:101EF000E1F0C216D306E406F506B0F0CA01B90156
:101F0000A40193010E9467139B01AC012B0D311DAD
:101F1000411D511D2130F0E03F07F0E04F07F0E890
:101F20005F0710F461E001C06FEFF801A1908F012D
:101F3000C5CF2114310481F0662331F001501040E7
:101F4000F1011183008308C051FE1AC002501040F5
:101F5000F1011183008314C067FF12C050FC05C05B
:101F60002FEF3FEF4FEF5FE704C020E030E040E0AD
:101F700050E882E290E0909305058093040516C036
:101F800050FE08C050954095309521953F4F4F4FDA
:101F90005F4F0CC057FF0AC082E290E090930505A6
:101FA000809304052FEF3FEF4FEF5FE7B901CA01C0
:101FB000DF91CF911F910F91FF90EF90DF90CF9025
:101FC000BF90AF909F908F907F906F905F903F9069
:101FD0002F9008959111D8C2803219F08950855000
:101FE000D0F70895FB01DC014150504088F08D91FD
:101FF00081341CF08B350CF4805E659161341CF0EB
:102000006B350CF4605E861B611171F3990B0895BA
:10201000881BFCCFFC018191861721F08823D9F71A
:10202000992708953197CF010895FB01DC010190B4
:102030000D920020E1F70895FB0151915523A9F07D
:10204000BF01DC014D9145174111E1F759F4CD0174
:102050000190002049F04D9140154111C9F3FB0159
:102060004111EFCF81E090E001970895DF93CF9386
:10207000CDB7DEB7FE013596619171918091000573
:1020800090910105AF010E94BE10CF91DF9108959C
:102090000F931F93CF93DF938C01E0910005F09194
:1020A0000105838181FF21C0C0E0D0E00DC0E09137
:1020B0000005F091010520853185BF01F9010995E1
:1020C000892B11F0CFEFDFEFF80181918F01882389
:1020D00071F7E0910005F0910105208531858AE0D6
:1020E000BF01F9010995892B11F0CFEFDFEFCE0188
:1020F000DF91CF911F910F9108951FDC08F481E0CB
:102100000895E89409C097FB3EF4909580957095EA
:1021100061957F4F8F4F9F4F9923A9F0F92F96E933
:10212000BB279395F695879577956795B795F111A8
:10213000F8CFFAF4BB0F11F460FF1BC06F5F7F4F45
:102140008F4F9F4F16C0882311F096E911C0772357
:1021500021F09EE8872F762F05C0662371F096E860
:10216000862F70E060E02AF09A95660F771F881F2F
:10217000DAF7880F9695879597F908952F923F92F1
:102180004F925F926F927F928F929F92AF92BF9287
:10219000CF92DF92EF92FF920F931F93DF93CF9333
:1021A000CDB7DEB72B970FB6F894DEBF0FBECDBF0D
:1021B0003C012B015A01FC0117821682838181FDAB
:1021C00003C06FEF7FEFC6C19AE0892E1E0108940D
:1021D000211C311CF3012381F20123FD859123FF92
:1021E00081912F01882309F4B2C1853239F423FD8E
:1021F000859123FF81912F01853229F490E0B3016D
:102200000E94DD12E7CF982FFF24EE249924FFE1EE
:10221000FF15D0F09B3269F09C3228F4903259F0CF
:10222000933291F40EC09D3249F0903369F441E04D
:1022300024C052E0F52A84E0F82A28C098E0F92A60
:1022400025C0E0E1FE2A22C0F7FC29C0892F805377
:102250008A3070F4F6FE05C0989C902C1124980EDC
:1022600015C0E89CE02C1124E80EF0E2FF2A0EC015
:102270009E3229F4F6FC6BC140E4F42A07C09C3678
:1022800019F450E8F52A02C0983649F4F20123FD0A
:10229000959123FF91912F01992309F0B8CF892FB0
:1022A0008554833018F08052833038F444E050E095
:1022B000A40EB51E5FE359830FC0933631F09337F8
:1022C00079F0933509F056C020C0F50180818983EB
:1022D00042E050E0A40EB51E610101E010E012C022
:1022E000F501C080D180F6FC03C06FEF7FEF02C024
:1022F000692D70E042E050E0A40EB51EC6010E94B8
:10230000D2128C015FE7F52214C0F501C080D180A4
:10231000F6FC03C06FEF7FEF02C0692D70E042E072
:1023200050E0A40EB51EC6010E94C7128C0150E8F1
:10233000F52AF3FE07C01AC080E290E0B3010E94C4
:10234000DD12EA948E2D90E008171907A8F30EC04D
:10235000F601F7FC8591F7FE81916F0190E0B301E2
:102360000E94DD12E110EA940150104001151105A0
:1023700079F7EAC0943611F0993669F5F7FE08C08E
:10238000F501208131814281538184E090E00AC0CF
:10239000F501808191819C01442737FD4095542FA0
:1023A00082E090E0A80EB91E9FE6F92257FF09C00F
:1023B00050954095309521953F4F4F4F5F4FE0E846
:1023C000FE2ACA01B901A1012AE030E00E940913E6
:1023D000D82ED21840C0953729F41F2D1F7E2AE031
:1023E00030E01DC01F2D197F9F3661F0903720F41B
:1023F000983509F0ACC00FC0903739F0983709F024
:10240000A6C004C028E030E00AC0106114FD1460CA
:1024100020E130E004C014FD166020E132E017FF37
:1024200008C0F501608171818281938144E050E0B0
:1024300008C0F50180819181BC0180E090E042E01C
:1024400050E0A40EB51EA1010E940913D82ED21887
:102450008FE7F82EF122F6FE0BC05EEFF522D914BD
:1024600038F4F4FE07C0F2FC05C08FEEF82202C07B
:102470001D2D01C0192DF4FE0DC0FE01ED0DF11D45
:102480008081803319F499EEF92208C01F5FF2FEB3
:1024900005C003C08F2D867809F01F5F0F2DF3FC58
:1024A00014C0F0FE0FC01E1510F09D2C0BC09D2C0B
:1024B0009E0C911A1E2D06C080E290E0B3010E948E
:1024C000DD121F5F1E15C0F304C01E1510F4E11AC3
:1024D00001C0EE2404FF0FC080E390E0B3010E942E
:1024E000DD1202FF1DC001FD03C088E790E00EC0B1
:1024F00088E590E00BC0802F867891F001FF02C044
:102500008BE201C080E2F7FC8DE290E0B3010E9413
:10251000DD1206C080E390E0B3010E94DD129A94C0
:10252000D914C0F3DA94F101ED0DF11D808190E032
:10253000B3010E94DD12DD20A9F706C080E290E021
:10254000B3010E94DD12EA94EE20C1F743CEF301FD
:1025500066817781CB012B960FB6F894DEBF0FBE54
:10256000CDBFCF91DF911F910F91FF90EF90DF9042
:10257000CF90BF90AF909F908F907F906F905F9023
:102580004F903F902F900895992788270895FC0138
:102590000590615070400110D8F7809590958E0F8E
:1025A0009F1F0895FC016150704001900110D8F701
:1025B000809590958E0F9F1F08950F931F93CF9333
:1025C000DF938C01EB018B8181FF1BC082FF0DC06B
:1025D0002E813F818C819D812817390764F4E88121
:1025E000F9810193F983E88306C0E885F985802F96
:1025F0000995892B31F48E819F8101969F838E836B
:1026000002C00FEF1FEFC801DF91CF911F910F9113
:102610000895FA01AA27283051F1203181F1E89478
:102620006F936E7F6E5F7F4F8F4F9F4FAF4FB1E0C5
:102630003ED0B4E03CD0670F781F891F9A1FA11DC0
:10264000680F791F8A1F911DA11D6A0F711D811DC1
:10265000911DA11D20D009F468943F912AE0269F86
:1026600011243019305D3193DEF6CF010895462FE5
:102670004770405D4193B3E00FD0C9F7F6CF462FC6
:102680004F70405D4A3318F0495D31FD405241932F
:1026900002D0A9F7EACFB4E0A695979587957795EC
:1026A0006795BA95C9F700976105710508959B0173
:1026B000AC010A2E06945795479537952795BA95FC
:1026C000C9F7620F731F841F951FA01D0895629F95
:1026D000D001739FF001829FE00DF11D649FE00D1A
:1026E000F11D929FF00D839FF00D749FF00D659F7B
:1026F000F00D9927729FB00DE11DF91F639FB00D7A
:10270000E11DF91FBD01CF0111240895F894FFCFF9
:102710007374617274002320756E6B6E6F776E2018
:102720006B657920253032780A0000000003000034
:1027300000006701A5010000000000020000000089
:102740003B02000000000AFA0A000C00280000000A
:10275000FF0306FF600902060A0908182824206002
:10276000A09080818242253032782563000A0505D9
:102770006F6B00526573656E643A256C750A00458F
:1027800072726F723A756E6B6E6F776E20636F6DDB
:102790006D616E646F004D313130004572726F7241
:1027A0003A204C696E65204E756D626572206973C2
:1027B000206E6F74204C617374204C696E65204EDE
:1027C000756D6265722B312C204C617374204C69DD
:1027D0006E653A256C750A004572726F723A6368CD
:1027E00065636B73756D206D69736D617463682CBF
:1027F000204C617374204C696E653A256C750A0033
:102800004572726F723A4E6F20436865636B7375E1
:102810006D2077697468206C696E65206E756D62D5
:1028200065722C204C617374204C696E653A256C7E
:10283000750A004572726F723A4E6F204C696E6570
:10284000204E756D626572207769746820636865D3
:10285000636B73756D2C204C617374204C696E65CD
:082860003A256C750A00010124
:00000001FF
